:020000040800F2
:1000000040070020D5000008A1140008691200086C
:1000100000000000000000000000000000000000E0
:10002000000000000000000000000000F11E0008B9
:100030000000000000000000A51500086121000874
:100040000501000805010008F11B00080501000872
:100050000501000805010008050100080501000868
:100060000501000805010008050100080501000858
:100070000501000805010008050100080501000848
:10008000050100080501000800000000FD2200082D
:100090000501000805010008050100080501000828
:1000A000050100080501000805010008992800085D
:1000B0000501000800000000050100080000000024
:1000C0000348854600F09AF800480047713200085E
:1000D000400700200C4880F308880C480168090E8E
:1000E0000B4A914205D10B480B4901600B480C4962
:1000F00001600C4880470C480047FEE7FEE7FEE73A
:10010000FEE7FEE7FEE700004007002004000000D5
:100110001F00000018100240010000000000014014
:100120000000000065210008C100000830B50B4642
:10013000014600202022012409E00D46D5409D42C1
:1001400005D31D469540491B254695404019154647
:10015000521E002DF1DC30BD70B50024254600286C
:1001600001DA01244042002901DA01254942FFF762
:10017000DDFFAC4200D04042002C00D0494270BDAF
:1001800010B5002200E0521C835C8C5CA34201D1BC
:10019000002BF8D1D8B2E1B2401A10BDF0B51FB4AF
:1001A0000646002082B005464024019100901BE0E5
:1001B000019922460F46304600F042F8049A059B0A
:1001C000801A994110D310461946224600F028F8AB
:1001D000361A8F410197224601200021009F00F02E
:1001E0001FF838184D4100902046641E0028DFDCBF
:1001F000019B00982946324607B0F0BD064C012508
:10020000064E05E0E36807CC2B430C3C98471034BE
:10021000B442F7D3FFF758FFD4360008F43600088D
:1002200010B5202A04DB0146203A9140002010BD81
:10023000914020239C1A0346E3401943904010BD8F
:1002400010B5202A04DB0846203AD040002110BD1A
:100250000B46D340D0402024A21A914008431946AF
:1002600010BD70B58C180578401C6B075B0F01D171
:100270000378401C2A1106D10278401C03E006785E
:100280000E70401C491C5B1EF9D12B0705D40023BE
:10029000521E0DD40B70491CFAE70378401CCB1A90
:1002A000921C03E01D780D70491C5B1C521EF9D591
:1002B000A142D8D3002070BDF8B52848009000F0C6
:1002C0001BFD00F0B9FD04462046E10F0918491056
:1002D0004900611A11D1002C01D1214F03E0A01E69
:1002E00040021F494718342000F05AFC384600F0FD
:1002F0005DFC042801D000BFFEE7600218494618E3
:100300001848417B304600F09FFC042801D1B61C00
:1003100001E000BFFEE700250FE0009801883046AD
:1003200000F092FC042804D1B61C0098801C0090B8
:1003300001E000BFFEE7681CC5B20A49497B0622FE
:1003400051430846C90F09184910A94201DD322D51
:10035000E3DB00F06FFC0120F8BD0000140000207A
:1003600000380008340100200020024908700248CB
:1003700000787047C3010020C0010020002002491E
:100380000870024800787047C3010020C1010020B6
:1003900010B588480078522803D107208649087094
:1003A00007E1864800784F2803D10620824908706B
:1003B000FFE0824882490860F6E081480068401CFE
:1003C0007F4908600846006800782C2843D03A2806
:1003D00051D17C497CA0FFF7D3FE002806D1012033
:1003E0007549087002207A490870DCE0754979A0E7
:1003F000FFF7C6FE002806D102206F4908700520CD
:1004000073490870CFE06F4974A0FFF7B9FE002868
:1004100006D103206849087005206D490870C2E0C4
:10042000684970A0FFF7ACFE002806D1042062499D
:100430000870052066490870B5E062496CA0FFF7B6
:100440009FFE002806D105205B4908700420604902
:100450000870A8E000BF5E480078022803D103209E
:100460005B49087006E05A480078052802D102204E
:100470005749087097E056480078030002F09AFC4C
:100480000690041027434D904D48006800785A4963
:100490000968087058480068401C5749086080E0A7
:1004A00056480078002806D1454800680078303862
:1004B000524908700AE0514800780A2148434049EF
:1004C00009680978401830384C49087069E03C48A0
:1004D000006800784A490968087049480068401C6B
:1004E0004749086047480078401C4649087043481F
:1004F000007840000978884204DC01F0F9FD002012
:10050000334908704DE02E480068007830383E4985
:10051000087000202E49087043E027480078022820
:1005200016D13A480078002806D12548006800789E
:1005300030383649087032E0344800780A214843A0
:100540001F4909680978401830383049087026E09A
:1005500019480078032803D01748007804281ED1D2
:100560002A480078002806D11548006800783038FD
:100570002649087013E01248006800780D2803D15E
:100580000020134908700AE0204800780A214843F7
:100590000B4909680978401830381C49087000E098
:1005A00000BF00BF00BF00BF09480078002800D08E
:1005B00003E710BD94010020C301002002030020C6
:1005C000BC010020440200204E434D475200000071
:1005D0009E0100204E504D47520000004E4E434FAA
:1005E0004E4E00004E4E444953434F4E0000000013
:1005F0004E4D4F444500000098010020B0010020FE
:10060000B8010020B1010020C0010020C10100207C
:1006100010B50C480078002800D110BD0A480B49DD
:100620000860084600680178094802F09AFA012239
:100630000849074802F0F3F900200249087000BF9A
:10064000EBE70000A201002071020020AC010020B5
:10065000003801400701070010B502460023084C8E
:100660002370084B1B781370002004E0064B1B5CC2
:100670000B54431CD8B2034B1B789842F6DB10BDD9
:10068000C3010020B0010020DD02002030B5034688
:1006900000240A4D2C700A4C24780C70094C2478E4
:1006A0001C70002004E0084C245C1454441CE0B28C
:1006B000034C2478A042F6DB30BD0000C3010020CB
:1006C000B0010020C1010020DD02002010B5044669
:1006D000012C05D1084A09A10C4802F057FB04E09F
:1006E0000B4A06A1094802F051FB02200949087093
:1006F00000F06EF810BD0000B836000841542B4ED3
:10070000434D47533D342C25730D0000A7020020B4
:10071000C1360008A301002007480078002809D04E
:1007200006480078022805D1034908780021024ACA
:10073000117070470020FCE7C30100209D010020DC
:1007400070B504460D462946204600F097FD064B3D
:10075000224606A1094802F019FB02200849087048
:1007600000F036F870BD00004D02002041542B4EC1
:10077000434D47533D25752C25730D00A7020020DE
:10078000A3010020F8B505460C4616463146204622
:1007900000F074FD064823462A4606A100900A4848
:1007A00002F0F4FA01200949087000F011F8F8BDD0
:1007B0004D02002041542B4E504D47533D25752C82
:1007C00025752C25730D0000A7020020A301002031
:1007D00010B519480078002800D110BD17480078DE
:1007E000002800D1F9E7164A16A1174802F0CEFA00
:1007F000154816490860084600680178144802F058
:10080000B0F901221349124802F009F90B480078A7
:10081000012806D100F0C4FC012802D1002001F01B
:1008200069FB064800780C490870002003490870ED
:100830000149087000BFD0E7A2010020A3010020F9
:10084000A70200202573000071020020AC010020E7
:100850000038014007010700A401002010B505A1E0
:10086000074802F093FA032006490870FFF7B0FF2B
:1008700010BD000041542B4E5253540D0000000097
:10088000A7020020A3010020012001490870704741
:10089000A201002000B589B00121480400F0E8FE63
:1008A0000121880300F014FF0121480400F0E0FE5C
:1008B000032000900121684601710021817103210C
:1008C00041710021C17169460920C00600F0F4FBA6
:1008D000002202210920C00600F058FC002201215C
:1008E0000920C00600F052FC01220921C80600F0D0
:1008F0002BFC01220A210920C00600F025FC032060
:1009000040020090022168460171032141710021DB
:1009100081710121C17169460920C00600F0CCFB3C
:100920001B216846017201214172817202A800F008
:10093000B9FD144801F0D4FF4B20C0010390002002
:1009400004900590069008900C20079003A90D488C
:1009500002F086F801220C490A4802F060F80121F1
:10096000084801F0B1FF012202210920C00600F071
:100970000DFC012211460920C00600F007FC09B059
:1009800000BD0000003801400501050010B52248F7
:1009900002F0E2F8214908702148007801281BD1B3
:1009A000084600781F49096808701E480068401C06
:1009B0001C49086019480078522805D1084600688B
:1009C0002038807F4F2803D0144800784B2822D14C
:1009D0000020134908701EE0104800780D2803D04D
:1009E0000E4800780A2804D10F480078401C0E49B0
:1009F00008700D480078022801D1FFF7C9FC0A48A9
:100A00000078042807D10120054908700020064914
:100A1000087002F0F9FD10BD00380140940100207B
:100A20009C010020BC0100209D01002010B50D4854
:100A30000068401C0B4908600846006800780028E0
:100A400006D0084600680178074802F08AF807E0F7
:100A500000220649044801F0E2FF01200449087021
:100A600010BD0000AC010020003801400701070064
:100A70009501002030B502460B460E4800240021A7
:100A800015E05D5C684000BF0125ED030540002DC9
:100A900004D04504280C084D684001E04504280CAA
:100AA000651CECB2102CEFDB00244D1CE9B2914226
:100AB000E7DB30BDFFFF0000211000000148007897
:100AC00070470000650100200148007D704700006C
:100AD000440100200148007B7047000034010020E1
:100AE0000146C87900060A7A120410434A7A1202B3
:100AF00010438A7A1043044A1268904201D10120BF
:100B000070470020FCE700006801002001494861AF
:100B10007047000000040140002120498279002A2A
:100B200035D00A46126803689A430B461A600A4693
:100B3000526803689A430B465A60027951180A6852
:100B400003681A430A60154A926803689A43134B74
:100B50009A601A46D26803689A43104BDA60427969
:100B6000102A0CD11A46926803681A430B4B9A60FC
:100B70001A46D26803681A43084BDA600DE0074949
:100B8000427951180A6803681A430A6005E002793D
:100B900051180A6803689A430A60704700040140CC
:100BA0000149C860704700000020024030B504468B
:100BB00004250B20000400F0B1F80546042D17D1E0
:100BC0000C480069022108430A490861084644614B
:100BD000006940210843074908610B20000400F028
:100BE0009DF80546034800690221884301490861D0
:100BF000284630BD0020024004200D49C968C907BD
:100C0000C90F002901D0012010E00949C96810224C
:100C10001140002901D0022008E00549C9680422DA
:100C20001140002901D0032000E00420704700009B
:100C300000200240034800698021084301490861FF
:100C4000704700000020024070B504460D4604269F
:100C50000B20000400F062F80646042E11D10A4869
:100C60000069012108430849086125800B20000420
:100C700000F054F806460448006940084000024964
:100C80000861304670BD00000020024078B506467D
:100C90000C460425002000900B20000400F03EF8D4
:100CA0000546042D24D11348006901210843114948
:100CB000086134800B20000400F030F80546042D54
:100CC00010D1B01C0090200C009908800B2000046B
:100CD00000F024F80546074800694008400005492F
:100CE000086105E0034800694008400001490861C7
:100CF000284678BD00200240054800698021084050
:100D0000002804D0034802494860034848607047FF
:100D10000020024023016745AB89EFCD10B50346A3
:100D20000424FFF769FF044603E0FFF765FF04466C
:100D30005B1E012C01D1002BF7D1002B00D1052423
:100D4000204610BD03B5002111E0C8000A4A8018F2
:100D500080886A469288904207D1C800064A105897
:100D6000009A904201D108460CBD481CC1B2082926
:100D7000EBDBFF20F8E70000C4010020CA00034BB2
:100D8000D3180CCB4360026070470000C401002000
:100D9000F8B5164F00F050F80646002E01D1012696
:100DA00001E0701EC6B27002114944182178114842
:100DB0004173407BFF2802D100210E484173A41CDF
:100DC000002505E020883880BF1CA41C681CC5B223
:100DD0000849497B062251430846C90F09184910A2
:100DE000A94201DD322DEDDBF8BD0000140000202A
:100DF000003800083401002010B500F047F8044620
:100E0000103C0A492068086008460068401C002819
:100E100000D10860241D064920680860241D208830
:100E2000888004480A4606CA06C010BD6801002032
:100E30005C010020C401002010B5124A002109E025
:100E40004B02104C1A1913880F4CA34200D003E038
:100E50004B1CD9B20229F3D300BF4B1CD8B209E016
:100E60004302084C1A191388074CA34200D103E02F
:100E7000431CD8B20228F3D300BF022800D30020BD
:100E800010BD000000380008FFFF0000064805E024
:100E90000168491C002900D103E010300349884251
:100EA000F6D300BF70470000003C00080040000877
:100EB0000021C943C200034BD2189180C20099504F
:100EC00070470000C401002010B54A7912028B79E6
:100ED000D218C300074C1B199A804A7812068B78E7
:100EE0001B04D218CB781B02D2180B79D218C3007E
:100EF000E25010BDC4010020F7B584B00F4615467E
:100F000001200190049802280ED1002407E0E0009F
:100F10002A4940182A4A06CA06C0601CC4B2082CD6
:100F2000F5DB002027490870F81EC7B200243CE01A
:100F3000204606214843401C285C01062046062224
:100F40005043801C285C0004091820465043C01CF4
:100F5000285C0002091820465043001D285C081830
:100F60000290204606214843401D285C010220468D
:100F70005043801D285C08186946888103990298AF
:100F8000FFF7E0FE0646FF2E0BD0002E02D1012017
:100F90000C490870F00009494018039A029906C0EC
:100FA00001E000200190601CC4B206213846FFF722
:100FB000D3F8A042BCDC019807B0F0BD04020020C9
:100FC000CC3600086501002070B505460B48007D51
:100FD000012800D170BD284600F012F80446FF2C0D
:100FE00003D101200549087505E00448817C0246CB
:100FF0002046FFF7C7FB00BFECE7000044010020DC
:101000000246002A02D11248C17C03E01048C07C8D
:10101000401CC1B214E0C8000E4BC01880880E4BB3
:101020009B8898420AD0C8000A4B18580A4B1B6884
:10103000984203D00648C17408467047481CC1B2A4
:101040000829E8DBFF20024BD87400BFF5E7000059
:101050004401002004020020CC3600080021C20018
:10106000054BD2189180C2009950C200034BD21890
:101070009180C20099507047C401002004020020F2
:1010800070B505460E460B488574002404E0305DBB
:1010900008490855601CC4B2AC42F8DB0120054980
:1010A000C87400200875012048750020FFF78CFFE8
:1010B00070BD000044010020F0B50A460021002365
:1010C000002400BF3DE001258D402B4615681D40E2
:1010D0002C469C4234D11579012D02D01579022D70
:1010E00016D185684F000326BE40B543856055790B
:1010F0004E00B540866835438560858801268E4060
:10110000B5438580858896798E40B6B23543858013
:1011100005684F000326BE40B543056015794E00B3
:10112000B540066835430560C5684F000326BE40DC
:10113000B543C560D5794E00B540C6683543C56036
:10114000491C1029BFD3F0BDF0B5002300244D0782
:10115000EE0E1546B5402B46CD10AE0005462035A7
:10116000AD594E07F70E0F26BE40B543CE10B60060
:1011700007462037BD51CD10AE003D46AD591D4349
:101180002C46CD10AD003E467451F0BD002A01D072
:10119000816100E0018570470146087870470000D2
:1011A0000148407D704700004401002000B58FB029
:1011B0000121080200F06CFA214801F069F90122CE
:1011C00000211F4801F0DEFA01211D4801F0DDFA7F
:1011D000002168468185C185012101860C21418657
:1011E000002181860BA9164801F0EAF9132108A80D
:1011F000017600214176012181760EA800F052F996
:1012000001210F4801F0CCF800200D49088201228D
:1012100002210B4801F00CFA00BF0A4800680228BE
:10122000FBD1074801F034F901A800F07BFA064928
:1012300003980968FEF77AFFC0000FB000BD0000F8
:10124000002000407401002078010020024A06CAF4
:1012500042600160704700005C0100200148007896
:1012600070470000A4010020FFF7F8FA024801F0DF
:10127000F9FA00BFFEE700007102000070B50546F4
:101280000E46002007490870002407E0335D054A38
:1012900005A1104601F07AFD601CC4B2AC42F5DB3A
:1012A00070BD00004D02002025732530325800002B
:1012B0000148024908607047CCCC00000030004073
:1012C0000148024908607047AAAA000000300040A7
:1012D00001494860704700000030004001498860C3
:1012E000704700000030004001490860704700006E
:1012F0000030004070B57D21C9003A480068FEF713
:1013000015FF401E84B23848C07B06214843374948
:10131000085C00110A2148433349C97B0622514326
:10132000324A515C0907090F4018C0B22E49C97BE7
:10133000062251432D4A8918497809110A2251433E
:10134000294AD27B06235A43284BD21852781207D7
:10135000120F8918C9B2484305462348C07B0621AD
:1013600048431946085C00110A2148431E49C97BBD
:10137000062251431A46515C0907090F4018C0B2B2
:101380001949C97B062251431A46891889780911DF
:101390000A225143144AD27B06235A43134BD218D4
:1013A00092781207120F8918C9B2484306460021E5
:1013B0000F4800F0F5FF611E694308460D49FEF72E
:1013C000B5FE80B20A494863611E71430846094967
:1013D000FEF7ACFE80B2064988630121044800F0A4
:1013E000DFFF70BD00000020340100201400002049
:1013F0000004004049260000F8B504467D21C900DC
:1014000024480068FEF792FE401E85B26078001105
:101410000A21484361780907090F4018C0B2A17832
:1014200009110A225143A2781207120F8918C9B272
:1014300048430646607800110A214843617809074D
:10144000090F4018C0B2E17809110A225143E2782D
:101450001207120F8918C9B24843074600210E48E7
:1014600000F09EFF691E714308460C49FEF75EFEC0
:1014700080B209494863691E794308460749FEF767
:1014800055FE80B2044988630121034800F088FFBB
:10149000F8BD0000000000200004004049260000C4
:1014A0007047000000218278002A27D0184A0323C1
:1014B0001B02D21803789B109B00D1580278920728
:1014C000D30EFF229A400B46934319464278920767
:1014D000120E03789B07DB0E9A4011430C4A03233C
:1014E0001B02D21803789B109B00D1500278D306C0
:1014F000DB0E01229A40064B1A6007E00278D30601
:10150000DB0E01229A40024B80331A6070470000C4
:1015100000E100E017B583B0144601216846017070
:101520000398010E6846417003980002010E684658
:10153000817003980004010E6846C1700398C1B21F
:1015400068460171008A011268464171008AC1B281
:1015500068468171002C03D100206946C87102E001
:1015600001206946C87169460820FFF783FA694679
:1015700008810920FFF7E4F806B010BD002807D065
:1015800007490968FF2201321143054A116006E04C
:1015900003490968FF2201329143014A11607047F3
:1015A00000700040704700007CB50446607900027E
:1015B000A17940186946888060780006A1780904FE
:1015C0004018E1780902401821794018009023481A
:1015D000019A009906C02248204A06CA06C0E0794E
:1015E0000006217A09040843617A09020843A17AB6
:1015F00008431C490860FFF749FC0546FFF77CFBE0
:10160000194885420AD33420FFF7CAFA1748FFF772
:10161000CDFA042801D000207CBD144D114801688A
:101620002846FFF733FB042801D00020F4E72D1DE6
:1016300028460099FFF72AFB042801D00020EBE799
:101640002D1D684681882846FFF7FEFA042801D040
:101650000020E1E7FFF7EEFA0120DDE75C01002062
:10166000C40100206801002000400008003C000880
:10167000002905D0054A52690243044B5A6104E02F
:10168000024A52698243014B5A617047001002407E
:10169000002905D0054AD2690243044BDA6104E00F
:1016A000024AD2698243014BDA617047001002405E
:1016B000002905D0054A12690243044B1A6104E06F
:1016C000024A12698243014B1A61704700100240BE
:1016D000002905D0054A92690243044B9A6104E04F
:1016E000024A92698243014B9A617047001002409E
:1016F000002905D0054AD2680243044BDA6004E0B1
:10170000024AD2688243014BDA60704700100240FF
:101710000348406A012109060843014948627047AD
:1017200000100240FEB5044600250026002002906D
:10173000019000900027864840680C21084005462B
:10174000002D06D0042D07D0082D08D00C2D2CD14B
:1017500028E0804820602BE07E48206028E07C481C
:1017600040680F21890408400646794840680321F3
:10177000C90308400290B00C861C0298002803D1CF
:101780007548374647430BE07148C06A0007000FB1
:10179000401C01906F480199FEF7C8FC7043074652
:1017A000276005E06D48206002E06A48206000BFC5
:1017B00000BF67484068F021084005462D09684889
:1017C000405D009020680099C840606060484068B3
:1017D00007210902084005462D0A6148405D009036
:1017E00061680098C140A1605948006BFF21013138
:1017F0000840884202D05B48E0600DE054484068F1
:10180000012189030840884203D0A0684008E060B5
:1018100002E0A0688008E0604D48006B402108406D
:10182000402802D05048206102E00120C00320611E
:101830004748006B10210840102802D045486061DD
:1018400001E0206860614248006B8007800F00283B
:1018500002D1A068A06119E03D48006B8007800FAD
:10186000012802D12068A06110E03948006B800790
:10187000800F022802D18003A06107E03448006B8A
:101880008007800F032801D13248A0613048006BE7
:10189000032109040840002802D1A068E06120E08B
:1018A0002B48006B032109040840012109048842E8
:1018B00002D12068E06114E02548006B032109048F
:1018C000084001214904884202D18010E06108E00B
:1018D0001F48006B032109040840884201D11D48BC
:1018E000E0611B48006B032189040840002802D1F5
:1018F000A068206220E01648006B0321890408409C
:1019000001218904884202D12068206214E0104835
:10191000006B0321890408400121C904884202D1D7
:101920000011206208E00A48006B03218904084086
:10193000884201D1074820620548006B8021084099
:10194000802802D00548606200E06762FEBD0000AA
:101950000010024000127A0000093D00006CDC0219
:1019600084010020809FD5001280000010B502463F
:101970000021002300205111002902D10C4C2368C2
:101980000BE0012902D10A4C236A06E0022902D1A8
:10199000074C636A01E0064C636BD106C90E012453
:1019A0008C401C40002C01D0012000E0002010BD24
:1019B00000100240002806D00649496A012211435E
:1019C000044A516205E00349496A49084900014A4D
:1019D0005162704700100240002807D00749096A89
:1019E0000122D2031143054A116206E00349096A44
:1019F0000122D2039143014A116270470010024054
:101A00000249096A0143014A11627047001002400D
:101A100038B502460024009400230020CA24174D44
:101A20006C6253246C62002905D02C46A4681443D0
:101A3000AC6001201DE0114CA46894430F4DAC60D4
:101A400000BF0E4CE468150A2C402346009C641C21
:101A500000940125AD03009CAC4201D0002BF0D0D6
:101A6000064CE468150A2C40002C01D1002000E04F
:101A70000120FF24014D6C6238BD000000280040A9
:101A8000014600BFF020084000110A2358430246D7
:101A90000807000F8018C0B270470146002204E01A
:101AA000501CC2B208460A38C1B20A29F8DA100737
:101AB000000E08437047000010B500210109802284
:101AC0000A4392B2D243044BDB68802423401A437A
:101AD000014BDA6010BD00000028004008B500226C
:101AE000009200200021124AD26840231A40002AA6
:101AF0001BD1421E0E4BDA6000BF0D4AD268402354
:101B00001A401146009A521C00921B02009A9A42F7
:101B100001D00029F1D0064AD26840231A40002A99
:101B200001D0012002E0002000E0012008BD0000FB
:101B3000002800400348C068802188430149C860EC
:101B4000704700000028004070B5014600200022C8
:101B500000230F4C246804252C4022460C4C403CAA
:101B6000A4680C408E0C0D46F540ED0B15402C433F
:101B70002346074C403CE4680D092C402246002BCC
:101B800004D094B2002C01D0012000E0002070BDF0
:101B90004028004070B506460C46002512480068F3
:101BA0001249084005463F2000042840000C2070E0
:101BB0007F2000022840000A60706806400EA07076
:101BC000012080052840000CE070002E0BD1207809
:101BD000FFF756FF20706078FFF752FF6070A07823
:101BE000FFF74EFFA07070BD002800407F7F7F0090
:101BF00010B501200003FFF7A7FF00280BD0FFF767
:101C000079FB00F0F1FF01200003FFF755FF0120F1
:101C10004004FEF77BFF10BD10B5CA22164B5A6276
:101C200053225A62002911D01A46926804240346AE
:101C3000A3431A43104B9A600F4A403212680423A0
:101C400003401A430C4B40331A6010E00A4A926872
:101C500004240346A3439A43074B9A60064A403242
:101C60001268042303409A43034B40331A60FF2257
:101C7000014B5A6210BD00000028004030B50446F8
:101C80000025CA201249486253204862FFF726FF08
:101C9000002800D117E00E488068402188430C4995
:101CA0008860084680682168084309498860A06800
:101CB000086108460069A1880904084304490861CD
:101CC000FFF738FF0125FF2001494862284630BD53
:101CD00000280040F8B5054614460026002D0ED118
:101CE0003148806840210840002800D002E00020F0
:101CF000E07000BFA068002800D11BE01AE02A486D
:101D0000806840210840002804D02078FFF7B8FE02
:101D1000064602E00020E07000BFA068002804D161
:101D2000207BFFF7ADFE064604E0207BFFF7A8FE10
:101D3000064600BF002D12D0207800046178090209
:101D40000843A1780843E17809040843217B090688
:101D50000843A168084361680843064619E02078F3
:101D6000FFF79BFE07046078FFF797FE000207432A
:101D7000A078FFF792FE0743E07800040743207B3A
:101D8000FFF78BFE00060743A06807436068074320
:101D90003E46CA2004494862532048620846C6614C
:101DA000FF204862F8BD000000280040F8B5054655
:101DB0000C46002600200090002D0AD12F48806894
:101DC00040210840002800D002E00020E07000BF61
:101DD0000EE02A48806840210840002804D020787E
:101DE000FFF74EFE064602E00020E07000BF00BF95
:101DF000002D0BD020780004617809020843A178F7
:101E00000843E17809040843064610E02078FFF70C
:101E100044FE07046078FFF740FE00020743A07805
:101E2000FFF73BFE0743E078000407433E46CA2025
:101E30001249486253204862FFF750FE002801D142
:101E4000009016E00E4830400C490860FFF772FE23
:101E50000A48806820210840002808D100F012F8C4
:101E6000002801D1009004E00120009001E0012051
:101E70000090FF20014948620098F8BD002800400A
:101E80007F7F7F0008B50022009200200021174AC2
:101E9000926820231A40002A01D0012025E0CA229E
:101EA000124B5A6253225A621A46D268A0239A43AE
:101EB0000E4BDA6000BF0D4AD26820231A4011464B
:101EC000009A521C00929B02009A9A4201D000296B
:101ED000F1D0064AD26820231A40002A01D00120FE
:101EE00000E00020FF22014B5A6208BD002800409C
:101EF0007047000001494875704700004401002008
:101F0000417809110A22514342781207120F8918A9
:101F1000CAB203494A7300228A730A7370470000E9
:101F20003401002010200549086005484068044934
:101F30004860084640684860704700000020024042
:101F40000010024038B5044600216846C170E178AF
:101F50008170A17841706178017069460120FFF7B6
:101F600025FFFF210148C17338BD00003401002066
:101F7000FCB55D4D6D7B002D00D1FCBD0020A8E0BF
:101F8000014606254543594EAD19ED782C0206262B
:101F90004643564FF61936793443451CEAB211E0F0
:101FA00006255543514EAD19ED782B0206265643B2
:101FB0004E4FF61936793343A34201DA1C461146D7
:101FC000551CEAB2484D6D7B9542E9DC0625454338
:101FD000464E765D6D462E7006254543434EAD193F
:101FE0006E786D466E7006254543404EAD19AE784D
:101FF0006D46AE70062545433C4EAD19EE786D46F4
:10200000EE7006254543394EAD192E796D462E7179
:1020100006254543354EAD196E796D466E71062520
:102020004D43324E765D06254543304F7E5506259D
:102030004D433E46AD196E7806254543ED196E7049
:1020400006254D433E46AD19AE7806254543ED19AC
:10205000AE7006254D433E46AD19EE780625454344
:10206000ED19EE7006254D433E46AD192E79062535
:102070004543ED192E7106254D433E46AD196E7947
:1020800006254543ED196E716D462E7806254D43A4
:102090007E556D466E7806254D43ED196E706D4682
:1020A000AE7806254D43ED19AE706D46EE780625E7
:1020B0004D43ED19EE706D462E7906254D43ED1911
:1020C0002E716D466E7906254D43ED196E71451CD6
:1020D000E8B2054D6D7B854200DD51E7FF26024DDC
:1020E000EE7300BF49E70000340100201400002017
:1020F00000201CE01849095C2F2907DD1649095CFE
:102100003A2903DA1449095C30390CE01249095CB8
:10211000402907DD1049095C472903DA0E49095CAB
:10212000373900E000210C4A1154411CC8B2242860
:10213000E0DB00200CE04100074A515C0A0141004D
:10214000491C054B595C5118044A1154411CC8B232
:102150001228F0DB70470000EF020020DD020020B3
:102160007047000010B51B48006801210843194959
:102170000860084640681849084016494860084603
:1021800000681649084013490860084600680121A4
:10219000890488430F490860084640683F210904C4
:1021A00088430C4948600846C06A00090001C862BB
:1021B0000846006BFF2154318843064908630846EE
:1021C000406B40084000486300208860FFF7AAFE8B
:1021D00010BD0000001002400CB8FFF8FFFFF6FE33
:1021E000F0B50C4600210025068C0A4F3E400684BF
:1021F000018B058C074EF23E31401E05360C16430E
:102200003143044E093E35400126264335430183C0
:102210000584F0BDFEFF0000F8B50C460021002546
:1022200000260096068C0D4F3E400684018B058CDF
:102230002605360C00960A4E31401E07360C3143F7
:102240001606360C3143054E903E35401027009E51
:102250003E43354301830584F8BD0000EFFF0000D5
:10226000FF0C0000F8B50C46002100250026009662
:10227000068C0C4F3E400684818B058C2606360C5E
:102280000096084E0D3631401E05360C164331437C
:10229000054E3540FF270137009E3E43354381837D
:1022A0000584F8BDFFFE0000FFF50000F8B50C4600
:1022B0000021002500260096068C0D4F3E40068426
:1022C000818B058C2607360C00960A4E3140160687
:1022D000360C31431E07360C3143074E354001277B
:1022E0003F03009E3E43354381830584F8BD0000D3
:1022F000FFEF0000FF0C0000FF5F000010B502219F
:102300001F4800F04AF9002838D002211C4800F08C
:1023100043F81C480068002808D1194800F03AF931
:102320001949086001201749086027E0154800682E
:10233000012823D1124800F02DF914490860002229
:1023400002210F4800F074F9104800680E4909682E
:10235000884207D90D4800680B490968401A0C49A2
:10236000086008E0084800680A49081A074909682F
:1023700040180749086002200249086010BD0000AB
:1023800000200040740100207C010020800100201A
:1023900078010020FFFF0000CA430282704700005E
:1023A000002904D0028801231A43028003E0028836
:1023B000014B1A4002807047FEFF000010B58AB042
:1023C000002401214804FFF753F9C02000900221A6
:1023D0006846017103214171002181710121C171A0
:1023E00069460920C006FEF767FE01220621092082
:1023F000C006FEF7A9FE012207210920C006FEF74C
:10240000A3FE7D21C90017480068FDF78FFE401E1E
:1024100084B201210220FFF73BF900216846818345
:10242000C1830894818407A90F4800F0DDF9702169
:10243000684601810121418100218182FF21013112
:1024400001830020049002A9074800F0FBF802A9CC
:10245000054800F041F90121034800F007F80AB0EF
:1024600010BD00000000002000040040002907D03B
:102470004422125A0123DB031A4344231A5205E073
:102480004422125A53045B0C44221352704700003A
:1024900010B504463748844208D10121C014FFF723
:1024A00027F90021E014FFF723F962E001208007FB
:1024B000844208D101210846FFF7FAF800210120E3
:1024C000FFF7F6F855E02C48844208D1012102209C
:1024D000FFF7EEF800210220FFF7EAF849E027486D
:1024E000844208D101211020FFF7E2F800211020DA
:1024F000FFF7DEF83DE02248844208D10121202088
:10250000FFF7D6F800212020FFF7D2F831E01D4870
:10251000844208D101218015FFF7CAF80021A015D7
:10252000FFF7C6F825E01848844209D101210804C4
:10253000FFF7DEF8002101200004FFF7D9F818E0CA
:102540001248844209D101214804FFF7D1F8002143
:1025500001204004FFF7CCF80BE00D48844208D17D
:1025600001218804FFF7C4F8002101208004FFF74F
:10257000BFF810BD002C01400004004000100040D6
:102580000014004000200040004001400044014091
:10259000004801400146486B704730B502460020B4
:1025A00000230024158A0D402B4695890D402C46AA
:1025B000002B03D0002C01D0012000E0002030BD12
:1025C00070B505460C46208800280AD12389A288C8
:1025D00061882846FFF704FEE188284600F0D8F815
:1025E00025E0208804280AD12389A288618828460A
:1025F000FFF712FEE188284600F0D4F817E02088A3
:1026000008280AD12389A28861882846FFF72AFE74
:10261000E188284600F0D2F809E02389A288618881
:102620002846FFF743FEE188284600F0D1F870BD48
:10263000002A03D083890B43838102E083898B4383
:102640008381704770B5002400220023058C1C4E46
:1026500035400584028C8388048B194D6F3D2C40D6
:10266000B51E2C400D882C43751E2A408D892A43A7
:102670004D882A43134DA84208D0134DA84205D0D7
:10268000124DA84202D0124DA84212D10C4DED1F9E
:102690002A40CD892A430A4DED1E2A408D882A43BF
:1026A000074DFF3D2B400B4D2B400D8A2B434D8A90
:1026B0002B43838004838D684563028470BD0000D2
:1026C000FEFF0000002C014000400140004401409A
:1026D00000480140FFFD000070B5002400220023E7
:1026E000058C214E35400584028C8388048B1F4D58
:1026F0002C401F4D2C400D782D062D0C2C431A4DCF
:10270000103D2A408D892D052D0C2A434D882D051D
:102710002D0C2A43174DA84202D0174DA8421CD1B8
:10272000164D2B400D8AAD042D0C2B43114DA842A4
:1027300013D10D4D703D2A40CD892D052D0C2A4316
:10274000094D303D2A408D882D052D0C2A430C4D16
:102750002B404D8AAD042D0C2B43838004838D6860
:102760008563028470BD0000EFFF0000FF8F000052
:10277000FFFC0000002C014000400140FFFB000076
:10278000FFF7000001858282704750221152704786
:10279000028B034B1A400283028B0A430283704769
:1027A000F3FF0000028B044B1A400283028B0B06DE
:1027B0001B0C1A4302837047FFF30000828B034B0C
:1027C0001A408283828B0A4382837047F3FF0000A2
:1027D000828B044B1A408283828B0B061B0C1A439C
:1027E00082837047FFF3000000220288154B984255
:1027F00006D001239B07984202D0134B984203D185
:10280000124B1A404B881A43114B984203D0114B7C
:102810001A400B891A4302804B68C3620B880385F8
:10282000084B984208D00C4B984205D00B4B98426D
:1028300002D00B4B984201D18B7A0386012383820D
:1028400070470000002C0140000400408FFF000092
:1028500000100040FFFC0000004001400044014027
:102860000048014010B504465D20FFF77FF80028BE
:1028700001D0FEF74DFF0748FEF736FD0320FEF7B7
:1028800027FDA0B2FEF72AFDFEF71AFDFEF710FDA8
:1028900010BD00005555000010B50849084800F06B
:1028A00097F8012801D1FEF7C1F80649044800F065
:1028B0008FF8012801D1FEF769F810BD0701070064
:1028C0000038014005010500002904D002680123F9
:1028D0001A43026003E00268520852000260704727
:1028E00010B504463248844209D101218803FEF71D
:1028F000FFFE002101208003FEF7FAFE56E02D487E
:10290000844209D101214804FEF7D2FE00210120B2
:102910004004FEF7CDFE49E02748844209D1012159
:102920008804FEF7C5FE002101208004FEF7C0FEEA
:102930003CE02248844209D10121C804FEF7B8FED8
:1029400000210120C004FEF7B3FE2FE01C488442A2
:1029500009D101210805FEF7ABFE00210120000589
:10296000FEF7A6FE22E01748844208D1012120206C
:10297000FEF7BEFE00212020FEF7BAFE16E0124848
:10298000844208D101214020FEF7B2FE0021402000
:10299000FEF7AEFE0AE00D48844207D101218020F7
:1029A000FEF7A6FE00218020FEF7A2FE10BD00006B
:1029B000003801400044004000480040004C004006
:1029C000005000400014014000180140001C01406C
:1029D00070B502460B4600240021002500201E048D
:1029E000350ED9B201268E403146012D02D116682E
:1029F000314006E0022D02D15668314001E0966870
:102A000031401C0C0126A6403446D66934400029CA
:102A100003D0002C01D0012000E0002070BDF8B5EB
:102A200003460024002600960025002018460E04C8
:102A3000340ECEB200960127009EB7403D46022CD0
:102A400001D1001D02E0032C00D10830002A03D080
:102A500006682E43066002E00668AE430660F8BDD5
:102A6000F0B58BB004460D46002700200A900026E2
:102A70002068400840002060666803210903304652
:102A800088430646A8680643666026682D480640C7
:102A9000E968686808432969084306432660A66810
:102AA0000321090230468843064668690643A6604A
:102AB0006846FEF737FE2448844202D106980A9001
:102AC0000DE02248844202D107980A9007E020488E
:102AD000844202D108980A9001E002980A90206886
:102AE0000121C903084000280CD029680A9A500027
:102AF000FDF71CFB074629680A9A5000FDF716FBF4
:102B00000E4609E029680A98FDF710FB0746296878
:102B10000A98FDF70BFB0E4628684008B04200D823
:102B20007F1C20680121C9030840002806D038070F
:102B3000460F38460749084030430746A7810BB087
:102B4000F0BD0000F3E9FFFF003801400044004001
:102B500000480040F0FF00000146888CC005C00D11
:102B60007047CA05D20D0285704700001C49897B59
:102B7000322933DA42781A49897B06235943194BA3
:102B80005A5482781649897B06235943154BC91834
:102B90004A70C2781249897B06235943114BC918E0
:102BA0008A7002790E49897B062359430D4BC91857
:102BB000CA7042790A49897B06235943094BC918CF
:102BC0000A710749897B491CCAB205498A738A7B05
:102BD000497B8A4202D1012201490A7370470000F1
:102BE000340100201400002070B586B03648407BC8
:102BF000002806D10021FF200130FEF709FF06B0B2
:102C000070BD05A90120FEF7C5FF6946087D0502D4
:102C1000497D0D432C48C07BFF2806DA2A48C07B3B
:102C2000401CC1B22848C17319E0002412E00620FC
:102C3000604326494018C078060206216143234AB2
:102C4000891809790E43AE4202DD1F48C47305E0BE
:102C5000601CC4B21C48407BA042E8DC00BF1A489C
:102C6000C17B407B814202DB00211748C1730021F8
:102C7000FF200130FEF7CCFE00216846C1711248EA
:102C8000C07B0621484311494018C178684601714C
:102C90000D48C07B062148430C494018017968461D
:102CA0004171002181710121017488070390400066
:102CB000029001AAC10D0120FFF70CF801210802C2
:102CC000FEF7A6FE00BF9AE73401002014000020A2
:102CD00000B587B001210807FEF7DAFC0120FEF7F6
:102CE0004DFC0120FEF766FE00BF4120FEF73EFED0
:102CF0000028FAD001204002FEF782FE0120FEF7F4
:102D00006BFEFFF7BFF801204004FDF7FFFE012036
:102D100040040090002168460171082141710121A1
:102D20008171FDF7F9FE02216846017200214172AE
:102D30000121817202A8FEF7B5FB0021FF200130BE
:102D4000FEF766FE01210803FEF766FFFEF72EFA86
:102D50000D4908603120059032210B480068FDF7CD
:102D6000E5F9401E06900020049004A8FEF786FFB7
:102D700000216846C17301734173817303A9012067
:102D8000FFF714F807B000BD700100200FB410B5B4
:102D900004A9074B02AA039800F02AF8044602A9E6
:102DA000002000F05FFA204610BC08BC04B01847B1
:102DB0006532000830B47446641E2578641CAB424A
:102DC00004D3635D5B00E31830BC18471D46F8E789
:102DD00002E008C8121F08C1002AFAD170477047E4
:102DE000002001E001C1121F002AFBD17047000042
:102DF000FFB591B00F460546002606E025280AD00B
:102E0000149A139990476D1C761C28780028F5D1E8
:102E1000304615B0F0BD002400940121F34A02941D
:102E200000E004436D1C2B780846203B984010427C
:102E3000F7D128782A280ED0022128780246303A85
:102E4000092A15D8009A0A235A43303A80180C43AD
:102E50006D1C0090F1E701CF0090002805DA0120F9
:102E600040030443009840420090022004436D1C3C
:102E700028782E2815D10420044368786D1C2A2850
:102E80000AD101CF6D1C02900BE002990A22514336
:102E9000303940186D1C02902878014630390929D4
:102EA000F3D928786C2810D006DC4C281AD0682872
:102EB0000ED06A2817D104E0742813D07A2812D1D2
:102EC00010E00120400504430CE00121090501E068
:102ED000032109050C436978814203D101200005D3
:102EE00024186D1C6D1C287803906E281ED00CDCF5
:102EF000632831D004DC00288AD0582811D1B2E0F0
:102F000064287BD069280CD178E073282DD004DCAC
:102F10006F2870D0702804D1A7E075286CD078286D
:102F20006BD0149A13999047761C62E06002400FB0
:102F3000022807D003280AD0042838680AD006607F
:102F40003F1D56E03868F11706604160F8E73868C1
:102F50000680F5E70670F3E73878694608740020C4
:102F6000487404A80390012003E03868039000200F
:102F7000C0433F1D61070FD5002101E00199491CA5
:102F8000029A0191914213DA8142F7DB019A039987
:102F9000895C0029F2D10BE0002101E00199491C74
:102FA00001918142FADB019A0399895C0029F5D1EC
:102FB00001990098139A401A00902146149B00F042
:102FC0003BF901998019461807E0039803990078A6
:102FD000491C0391149A139990470198401E01903F
:102FE000401CF2D12146149B139A009800F014F96A
:102FF00086196D1C09E741E033E034E00A20002126
:10300000049005916002410F022905D001CFC2173B
:103010009446032905D007E0FF1DFF08FF0003CFFA
:1030200006E000B2C2179446042902D140B2C1178B
:103030008C4600226146944506DA0A460021404249
:1030400091418C462D2102E0210504D52B216A46B1
:103050001176012103E0E10701D02021F7E701917A
:1030600054E00A200BE0102009E010200490002119
:103070000420044308200591029003E00820002169
:10308000059104906002410F022905D001CF002272
:103090009446032906D006E0FF1DFF08FF0003CF7A
:1030A0008C4603E080B2042900D1C0B20021019116
:1030B00021072BD50399702906D0049A1021059B6E
:1030C0004A401A4305D00EE040216A46117601219C
:1030D00008E06146014306D030216A461176039923
:1030E000517602210191049A0821059B4A401A4316
:1030F0000CD16146014301D1610707D530216A46F1
:103100001176012101910299491E029103995829D2
:1031100004D037A103910FA90F910DE039A1F9E770
:103120006146059B049AFDF739F8039B8C469B5C2E
:103130000F9A521E0F92137061460143F0D10F98FF
:1031400007A9081A20300390600704D50120000465
:103150008443029801E0012002900399884201DD36
:10316000401A00E0002041180290019809180098C8
:10317000401A0090E00306D42146149B139A00984D
:1031800000F05AF886190020049008E006A9085CAF
:10319000149A139990470498401C761C0490019946
:1031A0008842F3DBE0030CD52146149B139A009868
:1031B00000F042F8861904E0149A302013999047E1
:1031C000761C0299481E02900029F5DC08E00F9851
:1031D0000F990078491C0F91149A13999047761C07
:1031E0000399481E03900029F1DCFBE60928010041
:1031F000303132333435363738396162636465666D
:10320000000000003031323334353637383941422E
:103210004344454600000000F8B5044600251E461C
:103220001746880404D405E039462020B0476D1CB9
:10323000641EF9D52846F8BDFFB50446002581B0C7
:103240001E46C80301D5302700E02027880404D596
:1032500005E038460399B0476D1C641EF9D5284631
:1032600005B0F0BD0A68531C0B6010707047000079
:1032700092B0FFF72DFDFFF7A1F8FDF70BFBFDF76F
:10328000BBFDFDF785FD00200C900B9001200A90FE
:103290000027002005900025039001200B90D948BD
:1032A000FFF7E0FAADE1FDF737FA0546002D6ED0E5
:1032B0000598002804D0012850D0022868D1B1E038
:1032C000012D06D0052D42D0062D36D0072D42D136
:1032D00038E00DA90CA8FDF7BFF90DA8FDF75CFFBC
:1032E00004460A2C06D00B2C1AD00C2C0BD00D2C1B
:1032F00020D11BE001260DA8FDF7F2FB0B900B98E7
:10330000FDF7E4F917E001260DA8FEF74DF9064692
:103310003046FDF7DBF9002E01D100BFFEE70AE0E1
:103320000DA8FEF70FFEFFF75FFC04E00DA8FEF707
:1033300063F800E000BF00BF0EE0FDF7A5FAFDF75F
:1033400047FA09E0FDF7A0FAFDF762F904E0FDF79E
:103350000BF8059000E000BF00BF4FE12B00FFF726
:1033600029FD085E055E4E5B4A40455E0DA90CA82E
:10337000FDF772F90DA8FDF70FFF04460B2C08D0DE
:103380000D2C0CD00E2C0ED01E2C27D10FE036E1C8
:1033900033E10DA8FEF7D6FDFFF726FC1FE00DA8D0
:1033A000FEF72AF81BE00DA8FEF7AAFD17E0FDF7CF
:1033B00091FB002811D10DA8FFF7D8FBFDF78AFB80
:1033C00001280AD1FEF7D4FDFCF776FF0646002E51
:1033D00001D100BFFEE7FFF707FC00E000BF00BF20
:1033E0001EE0FDF751FAFDF7F3F919E0FDF74CFA8D
:1033F000FDF70EF914E0FCF7B7FF059010E001A807
:10340000FDF724FF0299019809910890012209997A
:103410000898FEF77FF803E0FDF720FA00E000BF10
:1034200000BFEBE02B00FFF7C5FC08E5056EC7CF3A
:10343000C384A5E50DA90CA8FDF70EF90DA8FDF7AD
:10344000ABFE04462007000F02280DD00DA908A8E6
:10345000007CFDF715FEFDF731FB0A90FDF734FB0C
:10346000012801D1FDF732F90A98002804D120077C
:10347000000F022800D0BEE00E2C16D006DC022C75
:103480002ED00B2C0BD00D2C3AD104E0122C28D0CE
:103490001E2C35D10DE00DA8FDF7AEFF31E00DA8D3
:1034A000FEF750FDFFF7A0FB2BE00DA8FEF728FD6F
:1034B00027E0FDF70FFB002811D10DA8FFF756FB01
:1034C000FDF708FB01280AD1FEF752FDFCF7F4FED8
:1034D0000646002E01D100BFFEE7FFF785FB10E096
:1034E00000BF01260DAA08A8017C2046FDF704FDB7
:1034F0000646FDF7E3FA0A903046FDF7E7F800E0EC
:1035000000BF00BF77E00DAA0CA904A8FDF7BEF824
:103510000DA8FDF741FE0446012C09D10DA968460E
:10352000007CFDF7D1FC0DA908A8007CFDF708F987
:1035300061E000200390FDF7A7F9FDF78FFE074635
:10354000012F14D1FDF72CFE012806D10020FDF734
:103550003BFD0020FEF7CEFC02E00120FDF734FD2C
:10356000FDF7B2FA012804D1FDF7B0F801E0FDF74C
:103570002FF940E0FDF788F9FDF770FE0746039844
:10358000401CC0B20390039803280EDD0020039076
:10359000012F0CD10120FDF717FDFDF795FA012849
:1035A00005D10020FDF792F801E0FDF731F822E0A7
:1035B000FCF7DAFE05901EE0FCF7E0FE0490694699
:1035C000087CFDF775FC16E0FCF7D8FE0490684611
:1035D000017C01A8FDF7D2FB0299019807910690A2
:1035E000002207990698FDF795FF6846007CFDF7D5
:1035F00035FD00E000BF00BF00E000BF00BFFDF7E9
:103600005FFE50E6C4090000002004E000211D4ACE
:103610001154411CC8B22528F8DB002004E0002129
:10362000194A1154411CC8B20928F8DB002004E0F3
:103630000021164A1154411CC8B21228F8DB0020A0
:1036400004E00021124A1154411CC8B23728F8DBAB
:103650000E49104A11600C490F4A116009490F4A7E
:1036600011600B490E4A116001210E4A11700021B0
:103670000D4A11700D4A11700D4A11700D4A1170EA
:1036800070470000EF02002044020020DD0200200D
:1036900002030020B401002098010020B80100209E
:1036A000BC0100209E010020C1010020C0010020BB
:1036B000B1010020B00100203030303139344531C3
:1036C000003030303038344330000000000000005B
:1036D00000000000F436000800000020C4010000D3
:1036E0006202000838370008C40100207C05000091
:1036F000E02D00081193127A0009FF01020304066D
:10370000070809012D22010213FF1BFF0119A9253A
:10371000091F482C020304042D060708093013442E
:103720000212208A023D1A4D102A7114311ADD0846
:083730001AEF044B0203100024
:04000005080000C12E
:00000001FF
